:020000040000FA
:100000000C9461000C947E000C947E000C947E0095
:100010000C947E000C947E000C94C50B0C947E0016
:100020000C947E000C947E000C947E000C947E0058
:100030000C947E000C947E000C947E000C947E0048
:100040000C9471010C947E000C947E000C947E0044
:100050000C947E000C947E000C947E000C947E0028
:100060000C947E000C947E0000000000230026000B
:10007000290000000008000201000003040700003E
:1000800000000000000000000000250028002B00F8
:1000900000000000240027002A00040404040404D3
:1000A0000404020202020202030303030303010227
:1000B00004081020408001020408102001020408F6
:1000C000102011241FBECFEFD8E0DEBFCDBF11E05E
:1000D000A0E0B1E0E8E7FCE102C005900D92A03598
:1000E000B107D9F721E0A0E5B1E001C01D92A23E21
:1000F000B207E1F70E94C80B0C943A0E0C94000072
:1001000090E0FC01E255FF4F249186569F4FFC0181
:100110008491882399F090E0880F991FFC01E057A3
:10012000FF4FA591B491FC01EA57FF4F859194913F
:100130008FB7F894EC91E22BEC938FBF0895833046
:1001400081F028F4813099F08230A9F00895873049
:10015000A9F08830C9F08430B1F4809180008F7D9F
:1001600003C0809180008F7780938000089584B5CC
:100170008F7784BD089584B58F7DFBCF8091B000CB
:100180008F778093B00008958091B0008F7DF9CF74
:10019000CF93DF93282F30E0F901EE58FF4F849181
:1001A000F901E255FF4FD491F901E656FF4FC49192
:1001B000CC23A1F081110E949F00EC2FF0E0EE0F04
:1001C000FF1FE859FF4FA591B491EC91ED2381E019
:1001D00090E009F480E0DF91CF91089580E090E015
:1001E000FACF1F93CF93DF93282F30E0F901EE5819
:1001F000FF4F8491F901E255FF4FD491F901E65682
:10020000FF4FC491CC23A9F0162F81110E949F00AB
:10021000EC2FF0E0EE0FFF1FEA57FF4FA591B491CE
:100220008FB7F894EC91111108C0D095DE23DC93C0
:100230008FBFDF91CF911F910895DE2BF8CF8CE017
:100240000E9480008CE00E94C80061E0892B09F0C8
:1002500060E08CE00E94F1000E94EE06F3CF8BE09C
:100260000E9480008BE00E94C80061E0892B09F0A9
:1002700060E08BE00E94F1000E94EE06F3CF8AE07E
:100280000E9480008AE00E94C80061E0892B09F08A
:1002900060E08AE00E94F1000E94EE06F3CF0F9327
:1002A0001F9310E000E021E044E650E067E071E0D9
:1002B0008FE391E00E949D0A21E044E650E06AE16C
:1002C00071E08FE291E00E949D0A21E044E650E057
:1002D0006FE271E08FE191E00E949D0A1F910F9102
:1002E00008951F920F920FB60F9211242F933F93F0
:1002F0008F939F93AF93BF9380917F0190918001E3
:10030000A0918101B091820130917E0123E0230F01
:100310002D3758F50196A11DB11D20937E018093C4
:100320007F0190938001A0938101B093820180911D
:100330007A0190917B01A0917C01B0917D010196A1
:10034000A11DB11D80937A0190937B01A0937C0144
:10035000B0937D01BF91AF919F918F913F912F916C
:100360000F900FBE0F901F90189526E8230F02964E
:10037000A11DB11DD2CFE0918501F0918601808150
:10038000811107C08FEF9FEF9093790180937801DF
:100390000895E0918501F09186010580F681E02DB8
:1003A00080819181F1CFCF93DF93DC011596ED91A0
:1003B000FC910680F781E02DA489B5898685978513
:1003C00020893189EC013D832C83C089D1899B83AD
:1003D0008A83CF010C9611962D913C911297281784
:1003E000390721F41296DC93CE931197158A148A5B
:1003F0002C9121502C9320915501211157C0A28599
:10040000B3858481958126813781EC013D832C83DE
:10041000C681D7819B838A83CF01029611962D9145
:100420003C9112972817390721F41296DC93CE934A
:100430001197138612862C9121502C93C6892091F6
:10044000D8012C1710F4C093D80129E02C9FE001AB
:100450001124CC54DE4F0980DA81C02DD583C483AA
:100460004C815D8157834683AC81BD8113969C93FB
:100470008E9312979D838C83A689A29FD00111240D
:10048000AC54BE4FB387A2878C918F5F8C93A091A1
:10049000DB01B091DC01968956968C91891730F575
:1004A00081E080935401DF91CF910895A0919A014A
:1004B000B0919B01B787A68714962D913C91159713
:1004C000318B208B1496CD91DC9115979B838A8379
:1004D00015969C938E93149789E991E0958B848B64
:1004E000809199018F5F80939901D1CF80E0DBCF1C
:1004F0000FB6F8940F9280917601909177010F904A
:100500000FBE0895809155018F5F80935501089526
:100510000FB6F8940F92FC01928D0F900FBE81E000
:10052000911180E00895EF92FF920F931F93CF9364
:10053000DF93EC010FB6F8940F921E8D7C0181E1E0
:10054000E80EF11C01E01116D4F08FEF8E8F0F90A2
:100550000FBE0FB6F8940F921D8D7E0188E0E80E55
:10056000F11C01E01116B4F08FEF8D8F0F900FBECC
:10057000DF91CF911F910F91FF90EF90089589899E
:10058000882319F3C7010E94D301811100935401FC
:100590001150D9CF8885882339F3C7010E94D30130
:1005A0008111009354011150DDCFCF93DF93FC01F3
:1005B000A085B1858281938124813581EC013D83C1
:1005C0002C83C481D5819B838A8311968D919C91C4
:1005D00012978E179F0721F41296DC93CE931197F2
:1005E000118610868C9181508C93DF91CF91089564
:1005F0000F931F93CF93DF938C01FB018081918137
:10060000D80113968F3F9807F1F4E801AF81B885C0
:1006100012968D919C91139793838283EC01FD83B5
:10062000EC83B583A4831396FC93EE931297118702
:100630000087F80180818F5F8083DF91CF911F91C8
:100640000F910895D90112962D913C911397E901CC
:100650004881598184179507A8F7DACFFC01738385
:100660006283918780874617570790F0421B530B90
:100670008485958548175907C8F4BF016E5F7F4F81
:1006800080915C0190915D010E94F80280E00895E4
:100690004217530718F46217730740F4BF016E5FE7
:1006A0007F4F80915E0190915F01EECF81E00895D0
:1006B000EF92FF920F931F93CF93DF93EC018B0187
:1006C0007A016C857D85600F711F9801A701CE01AD
:1006D0000E942E03811107C0DF91CF911F910F91CE
:1006E000FF90EF9008958C859D85080F191FE8896C
:1006F000F989CE010995E5CFEF92FF920F931F93F1
:10070000CF93DF938C017B01E0915E01F0915F015B
:100710000580F681E02DC681D781CE0102960E9428
:10072000D5028A8982FF0FC0A701B801CE010E94BD
:100730005803E889F989CE01DF91CF911F910F917C
:10074000FF90EF9009948E7F8A8BF3CFE0915E014A
:10075000F0915F01808181110DC080915C019091C9
:100760005D0190935F0180935E01F0935D01E093E2
:100770005C0108950580F681E02D6FEF7FEF8081A9
:1007800091810E947C03E2CFBF92CF92DF92EF92E1
:10079000FF920F931F93CF93DF93EC01B62EC0907F
:1007A0007601D09077010091850110918601E0904B
:1007B0008301F09084018091DB019091DC0102962D
:1007C0000E94D502CF3FDC0709F042C0BB2009F4EC
:1007D0003FC0E0918801F0918901A091DB01B091C7
:1007E000DC011596FC93EE931497A091DB01B09178
:1007F000DC018481958117969C938E931697809146
:10080000DB019091DC01A481B581029613969C9343
:100810008E9312978091DB019091DC010296958373
:100820008483E091DB01F091DC0187E891E093871C
:100830008287809187018F5F80938701DF91CF91BD
:100840001F910F91FF90EF90DF90CF90BF90089590
:10085000CC0DDD1DE091DB01F091DC01D383C2837F
:100860006091DB017091DC016E5F7F4FCC15DD057F
:1008700060F4C701DF91CF911F910F91FF90EF902E
:10088000DF90CF90BF900C94F802C8010E94F8024C
:100890008091780190917901C817D90778F6D093A3
:1008A0007901C0937801CACFFC01039692838183BA
:1008B0002FEF3FEF3483238396838583908787834D
:1008C000108208950F920FB6F8940F921F92112480
:1008D0002F923F924F925F926F927F928F929F9250
:1008E000AF92BF92CF92DF92EF92FF920F931F933E
:1008F0002F933F934F935F936F937F938F939F9328
:10090000AF93BF93CF93DF93EF93FF93A091DB015E
:10091000B091DC010DB60D920EB60D92809155018D
:10092000882321F081E08093540161C0109254012A
:10093000A091DB01B091DC01E091DB01F091DC01E1
:100940002D913C918789908D82179307A8F0809113
:10095000DB019091DC018091DB019091DC01259A13
:100960002D9A2FEF87EA91E6215080409040E1F7E1
:1009700000C000001D9AF5CF2091D80189E001C088
:100980002150422F50E0849FF001859FF00D1124EB
:10099000EC54FE4F9081992399F3A181B281129674
:1009A0006D917C9172836183289FC00111248954C9
:1009B0009E4F6817790721F4858196819283818300
:1009C00089E0849FF001859FF00D1124EC54FE4FC7
:1009D0000180F281E02D868197819093DC018093E4
:1009E000DB012093D8018091DB019091DC01A09183
:1009F000DB01B091DC01CD91CDBFDD91DEBFFF9178
:100A0000EF91DF91CF91BF91AF919F918F917F91A6
:100A10006F915F914F913F912F911F910F91FF9097
:100A2000EF90DF90CF90BF90AF909F908F907F908E
:100A30006F905F904F903F902F901F900F900FBE40
:100A40000F9008958F929F92BF92CF92DF92EF9274
:100A5000FF920F931F93CF93DF930FB6F8940F92EB
:100A600080915501815080935501809155018823D3
:100A700079F080E00F900FBEDF91CF911F910F9121
:100A8000FF90EF90DF90CF90BF909F908F90089550
:100A90008091DD01882369F3E0909E01F0909F0131
:100AA000F0E0E0E039E041E08091990181115EC021
:100AB000EF2B11F00E94BB01E0905201F090530126
:100AC000E114F10409F47DC189E0D82ECC24C3944B
:100AD0000FEF1FEF80915501811161C1C091760127
:100AE000D09177014E018FEF881A980A9092770182
:100AF0008092760181149104B9F4809185019091DE
:100B000086012091830130918401309386012093E6
:100B100085019093840180938301809159018F5FB7
:100B2000809359010E94BB018091780190917901D5
:100B3000B12C8816990608F026C1E091DB01F091EE
:100B4000DC01E689DE9EF0011124EC54FE4F808129
:100B5000823010F0BB24B39480915401811103C002
:100B6000BB2009F425C1C092540122C1D7011696B9
:100B7000ED91FC91A489B5896685778580899189F5
:100B8000EB019D838C8380899189EC017B836A834F
:100B9000BF01645F7F4F11960D911C91129706174C
:100BA000170721F412969C938E931197158A148A35
:100BB0008C9181508C93A285B385848195816681C7
:100BC0007781EC017D836C8366817781EB019B8368
:100BD0008A83CF01029611960D911C9112970817E6
:100BE000190721F412967C936E931197138612863F
:100BF0002C9121502C93A6892091D8012A1710F40A
:100C0000A093D8013A9FD0011124AC54BE4F119645
:100C10000D90BC91A02DB583A48314966D917C9109
:100C200015977783668314966D917C911597EB01E8
:100C30009B838A8315969C938E9314979689939F92
:100C4000D0011124AC54BE4FB387A2878C918F5F23
:100C50008C93A091DB01B091DC0156968C918917A1
:100C600008F022CF409354011FCFE0918501F0910D
:100C700086010580F681E02D0680F781E02D8281D6
:100C800093818816990628F49093790180937801CE
:100C900054CFC285D3858481958126813781DC013B
:100CA00015963C932E93149726813781D90113967C
:100CB0009C938E931297CF01029649815A814817CF
:100CC000590711F43A83298313861286288121500B
:100CD0002883A489B5891097F9F02685378540893E
:100CE0005189E9015D834C8340895189EA013B8345
:100CF0002A8311966D917C9112979F01245F3F4F3B
:100D00006217730721F412965C934E931197158A1C
:100D1000148A2C9121502C93A6892091D8012A174E
:100D200010F4A093D801DA9ED0011124AC54BE4F28
:100D300011960D90BC91A02DB583A48314962D918E
:100D40003C9115973783268314962D913C911597E6
:100D5000E9019B838A8315969C938E9314979689B9
:100D60009D9DD0011124AC54BE4FB387A2878C91B6
:100D70008F5F8C93E091DB01F091DC01868989170C
:100D800010F4BB24B394E0918501F0918601808139
:100D900081116BCF1093790100937801CECE8091B1
:100DA0005201909153010196909353018093520107
:100DB000D1E0ED1AF10809F08DCE10925301109296
:100DC000520180915401882309F453CE8091DB01B4
:100DD0009091DC010E94620481E04CCE0E9482026C
:100DE00060E086E090E00E94C4030E942205811129
:100DF00002C00E94620408950F920FB6F8940F92F9
:100E00001F9211242F923F924F925F926F927F9286
:100E10008F929F92AF92BF92CF92DF92EF92FF920A
:100E20000F931F932F933F934F935F936F937F93F2
:100E30008F939F93AF93BF93CF93DF93EF93FF93E2
:100E4000A091DB01B091DC010DB60D920EB60D92B2
:100E500013BE809155018111F9C080917601909166
:100E6000770101969093770180937601009781F541
:100E70002091850130918601409183015091840138
:100E80005093860140938501309384012093830120
:100E9000209159012F5F20935901E0918501F09134
:100EA00086012081211107C02FEF3FEF3093790198
:100EB000209378010DC0E0918501F09186010580B5
:100EC000F681E02D208131813093790120937801E2
:100ED00020917801309179018217930710F420E076
:100EE000A1C020E039E0D32EE0918501F091860188
:100EF0003081311107C08FEF9FEF9093790180937C
:100F0000780190C0E0918501F09186010580F6811D
:100F1000E02D0680F781E02D4281538184179507EB
:100F200028F450937901409378017CC0A285B38561
:100F30004481558166817781EA017D836C83668176
:100F40007781EB015B834A83AF014E5F5F4F119660
:100F50000D911C9112970417150721F412967C939A
:100F60006E931197138612863C9131503C93A4895D
:100F7000B5891097F9F06685778500891189EB01AD
:100F80001D830C8300891189E8017B836A83119694
:100F9000ED90FC901297BF01645F7F4FE616F70655
:100FA00021F412961C930E931197158A148A3C9182
:100FB00031503C93A6893091D8013A1710F4A09390
:100FC000D801DA9ED0011124AC54BE4F11960D9079
:100FD000BC91A02DB583A48314966D917C91159737
:100FE0007783668314966D917C911597EB015B83F3
:100FF0004A8315965C934E93149746894D9DD00174
:101000001124AC54BE4FB387A2873C913F5F3C9301
:10101000E091DB01F091DC013689341708F064CFF0
:1010200021E062CFE091DB01F091DC01E689D9E0BB
:10103000ED9FF0011124EC54FE4F8081823008F0C6
:1010400021E08091540181110EC00AC080915201AB
:1010500090915301019690935301809352016CC07B
:10106000222309F469C080915501882321F081E091
:101070008093540161C010925401A091DB01B091A2
:10108000DC01E091DB01F091DC012D913C9187893D
:10109000908D82179307A8F08091DB019091DC017D
:1010A0008091DB019091DC01259A2D9A2FEF87EA40
:1010B00091E6215080409040E1F700C000001D9A69
:1010C000F5CF2091D80189E001C02150422F50E096
:1010D000849FF001859FF00D1124EC54FE4F908108
:1010E000992399F3A181B28112966D917C917283BB
:1010F0006183289FC001112489549E4F6817790786
:1011000021F4858196819283818389E0849FF00117
:10111000859FF00D1124EC54FE4F0180F281E02DEB
:10112000868197819093DC018093DB012093D80125
:101130008091DB019091DC01A091DB01B091DC0199
:10114000CD91CDBFDD91DEBFFF91EF91DF91CF91CA
:10115000BF91AF919F918F917F916F915F914F91CF
:101160003F912F911F910F91FF90EF90DF90CF90C3
:10117000BF90AF909F908F907F906F905F904F90B7
:101180003F902F901F900F900FBE0F900895CF9318
:10119000DF93009751F0EC010E948202CE010E9481
:1011A0009B0DDF91CF910C942205DF91CF91089593
:1011B000CF93DF9300D000D01F92CDB7DEB785E08C
:1011C000B82ECE0101967C01E0915E01F0915F01A5
:1011D0001081D12CC12C112329F00580F681E02D3E
:1011E000C080D1800E9482020E9478024C018091CE
:1011F0005701909158018816990608F089C00E94FD
:10120000A60390925801809257010E942205D701AF
:10121000EB2D1D92EA95E9F700917401109175018B
:101220000FB6F8940F92D8015A96DC905A97DD20A9
:1012300009F42FC15C964C915C974423F9F050E07F
:1012400016968D919C911797840F951F17969C93D6
:101250008E93169714962D913C91159782179307AC
:1012600038F08D919C91119717969C938E931697B9
:10127000F80166817781C7010E942A0EDA94D801AD
:101280005A96DC925A9718968C91882339F0C801A7
:1012900008960E94D30181110E9462040F900FBE34
:1012A000A980A7FCB9CF0C811D81D8011A968D9118
:1012B0009C91892B21F0C80102960E94D5020E94C0
:1012C00078026C018091570190915801C816D90697
:1012D00010F40E94A603D0925801C0925701EFEF7C
:1012E000EA0DE93008F098CF0E2E000CFF0BE15804
:1012F000F64FD80152968C9152970C94240E020A04
:10130000020A450A2D0A3F0A020A020A450A2D0A64
:101310009092580180925701112351F08C149D0432
:1013200070F00E942205B401C6010E947C036FCFB9
:10133000E0915C01F0915D0161E08081811160E0EC
:1013400000917401109175010FB6F8940F92D801B5
:101350005D968C915D978F3F11F45D961C92F8011C
:10136000868D8F3F09F4168E0F900FBED8015A96C6
:101370008C915A9781113CC05296ED91FC91A091AD
:10138000DB01B091DC011F96FC93EE931E97A091B8
:10139000DB01B091DC018481958151969C938E9301
:1013A00050978091DB019091DC01A481B5810C966E
:1013B00013969C938E9312978091DB019091DC01A0
:1013C0000C9695838483E091DB01F091DC01C801E8
:1013D0004196958B848BF80181898F5F818BC60143
:1013E00088199909662311F08FEF9FEF0E94C403BB
:1013F000C8010E9493020E942205811108CF0E9419
:10140000620405CF8160F801828B8A809B806485AD
:101410007585680D791D9401A601C8010E942E03EF
:10142000882309F4F9CED80152968C91529782FF05
:1014300010C01C966D917C91680D791DA601C801A4
:101440000E945803D8015096ED91FC91C80109956E
:10145000E3CE8E7FF801828BF5CF816052968C931C
:1014600052976A817B811D967C936E931C976C0DBD
:101470007D1D9601A601C8010E942E03CDCE81FDDF
:1014800004C0C8010E94C708C7CE8E7FF801828BB6
:10149000C3CE0F900FBE98CE00E010E080915601B1
:1014A00081110CC08091B401823010F00E9462045E
:1014B0000115110599F30E940000F0CF0FB6F894C2
:1014C0000F92E0919501F0919601C681D781CE01EE
:1014D00002960E94D5028091DD0181508093DD014A
:1014E000809156018150809356010F900FBE8F89D5
:1014F000988D0E94C708CE010E94C708CFCFCF9316
:10150000DF93EC010E948202CE010E94FF0CEC01ED
:101510000E942205209769F4259A2D9A2FEF80E7E3
:1015200092E0215080409040E1F700C000001D9AF9
:10153000F5CFCE01DF91CF9108957F928F929F9248
:10154000AF92BF92CF92DF92EF92FF920F931F93D1
:10155000CF93DF93982EA92E762E872E7A01B22E66
:10156000CA010E947F0A6C01892B09F4EDC080E357
:1015700090E00E947F0AEC01892B09F4E2C080E32D
:10158000DE011D928A95E9F7D88ECF8AA70165EA18
:1015900070E0C6010E94330EB1E0EB1AF108EF894A
:1015A000F88DEE0DFF1D672D782DCE0149969B011C
:1015B000205F3F4FDB014D91BD01DC014D93CD011B
:1015C000AB0141505109DA014C91442319F026171F
:1015D000370781F718A6BE8AB9A61B861A861D8A08
:1015E0001C8AD987C88784E090E08B1991099D8770
:1015F0008C87DB8BCA8B9082DF011197AC9211979D
:101600001C92119780E88C9311971C9257971C920B
:1016100011971C92B397F983E8830115110519F00E
:10162000F801D183C0830FB6F8940F928091DD0149
:101630008F5F8093DD018091DB019091DC01892B2C
:1016400009F091C0D093DC01C093DB018091DD01F2
:10165000813081F584EB91E00E9454048DEB91E0A0
:101660000E94540486EC91E00E9454048FEC91E0B7
:101670000E9454048BEA91E00E94540482EA91E0B3
:101680000E94540489E991E00E94540480E991E0A9
:101690000E94540487E891E00E9454048BEA91E090
:1016A000909386018093850182EA91E09093840172
:1016B000809383018091D9018F5F8093D901AE8996
:1016C0008091D8018A1710F4A093D80129E02A9FAD
:1016D000D0011124AC54BE4F11960D90BC91A02D99
:1016E000BD83AC8314968D919C9115979F838E83B7
:1016F0001496ED91FC911597CE0102969383828307
:1017000015969C938E931497EE89E29FF001112415
:10171000EC54FE4FFB87EA8780818F5F80830F90B8
:101720000FBE8091DA01882351F0E091DB01F09146
:10173000DC0196898E89981710F40E94620481E07A
:1017400004C0C6010E94C7088FEFDF91CF911F919F
:101750000F91FF90EF90DF90CF90BF90AF909F9050
:101760008F907F9008958091DA018111A3CFE0914D
:10177000DB01F091DC0196898E89891708F49ACFF4
:10178000D093DC01C093DB0195CF0E94FC06189535
:10179000CF93DF93CDB7DEB760970FB6F894DEBF77
:1017A0000FBECDBF789484B5826084BD84B581605E
:1017B00084BD85B5826085BD85B5816085BD80911C
:1017C0006E00816080936E00109281008091810094
:1017D000826080938100809181008160809381008C
:1017E000809180008160809380008091B10084604E
:1017F0008093B1008091B00081608093B0008091AF
:101800007A00846080937A0080917A00826080936D
:101810007A0080917A00816080937A0080917A00CA
:10182000806880937A001092C10020910501309168
:1018300006018FEF98E0821B930B90930201809337
:1018400001010E944F01A3E4B1E0FE013196BF0106
:101850008D918193882321F081E0A335B807C1F7EA
:101860000AE511E020E040EC50E08CE49AE00E94B0
:101870009D0A882309F4B7C0813009F0B4C00FB6BF
:10188000F8940F928091740190917501892B09F061
:1018900050C089E691E00E94540480E691E00E94E5
:1018A000540489E691E090935F0180935E0180E6A5
:1018B00091E090935D0180935C0181E590E00E944E
:1018C0007F0A8C01009789F14F96F80191838083FC
:1018D0008AE0838F85E0848F0FB6F8940F92808121
:1018E0009181238D448DBC01249F600D711D1124B5
:1018F00075836483128E938382832150330B429FBE
:10190000B001439F700D1124860F971F9783868324
:101910008FEF858F868FC80108960E945404C801F6
:1019200041960E9454040F900FBE109375010093CE
:1019300074010F900FBE8091740190917501892BF5
:1019400009F451C002E711E023E04CE550E068E4FF
:1019500071E088ED98E00E949D0A813009F043C053
:10196000F8942FEF3FEF3093790120937801809323
:10197000DA011092770110927601A89588E190EC37
:101980000FB6F894A895809360000FBE9093600006
:10199000A091DB01B091DC01CD91CDBFDD91DEBF27
:1019A000FF91EF91DF91CF91BF91AF919F918F9177
:1019B0007F916F915F914F913F912F911F910F9167
:1019C000FF90EF90DF90CF90BF90AF909F908F905F
:1019D0007F906F905F904F903F902F901F900F904F
:1019E0000FBE0F900895809100010E944F0100E00A
:1019F00010E001151105E9F30E940000FACF0F93E2
:101A00001F93CF93DF938230910510F482E090E032
:101A1000E091E001F091E10130E020E0B0E0A0E0F1
:101A2000309799F42115310509F44AC0281B390B68
:101A300024303105D8F58A819B816115710589F1C2
:101A4000FB0193838283FE0111C040815181028199
:101A5000138148175907E0F04817590799F4109770
:101A600061F012960C93129713961C933296CF0145
:101A7000DF91CF911F910F9108950093E001109392
:101A8000E101F4CF2115310551F04217530738F029
:101A9000A901DB019A01BD01DF01F801C1CFEF010E
:101AA000F9CF9093E1018093E001CDCFFE01E20FE9
:101AB000F31F819391932250310939832883D7CF23
:101AC0002091DE013091DF01232B41F420910301AD
:101AD000309104013093DF012093DE012091010158
:101AE000309102012115310541F42DB73EB74091E7
:101AF000050150910601241B350BE091DE01F091A8
:101B0000DF01E217F307A0F42E1B3F0B281739075C
:101B100078F0AC014E5F5F4F2417350748F04E0F49
:101B20005F1F5093DF014093DE01819391939FCF1C
:101B3000F0E0E0E09CCFCF93DF930097E9F0FC0169
:101B4000329713821282A091E001B091E101ED0180
:101B500030E020E01097A1F420813181820F931FA3
:101B60002091DE013091DF012817390709F061C0AB
:101B7000F093DF01E093DE01DF91CF910895EA0158
:101B8000CE17DF07E8F54A815B819E0141155105BB
:101B9000B1F7E901FB83EA8349915991C40FD51F3D
:101BA000EC17FD0761F4808191810296840F951FE7
:101BB000E90199838883828193819B838A83F0E002
:101BC000E0E012968D919C9113970097B9F52D91B5
:101BD0003C911197CD010296820F931F2091DE0157
:101BE0003091DF012817390739F6309751F51092F7
:101BF000E1011092E001B093DF01A093DE01BCCFC0
:101C0000D383C28340815181840F951FC817D907A0
:101C100061F44E5F5F4F88819981480F591F51834E
:101C200040838A819B81938382832115310509F04A
:101C3000B0CFF093E101E093E0019ECFFD01DC0124
:101C4000C0CF13821282D7CFEE0FFF1F0590F49101
:101C5000E02D0994FB01DC0102C001900D9241507E
:101C60005040D8F70895DC0101C06D9341505040B9
:101C7000E0F70895F894FFCF030000E201800052DE
:101C80006564204C656420436F6E74726F6C6C6584
:101C90007200477265656E204C656420436F6E74F8
:101CA000726F6C6C657200426C7565204C656420C7
:101CB000436F6E74726F6C6C65720049444C4500E2
:081CC000546D7220537663009D
:107800000C94343C0C94513C0C94513C0C94513CE1
:107810000C94513C0C94513C0C94513C0C94513CB4
:107820000C94513C0C94513C0C94513C0C94513CA4
:107830000C94513C0C94513C0C94513C0C94513C94
:107840000C94513C0C94513C0C94513C0C94513C84
:107850000C94513C0C94513C0C94513C0C94513C74
:107860000C94513C0C94513C11241FBECFEFD8E036
:10787000DEBFCDBF11E0A0E0B1E0ECE9FFE702C060
:1078800005900D92A230B107D9F712E0A2E0B1E065
:1078900001C01D92AD30B107E1F70E942D3D0C945F
:1078A000CC3F0C94003C982F959595959595959582
:1078B000905D8F708A307CF0282F295A8091C0000B
:1078C00085FFFCCF9093C6008091C00085FFFCCF60
:1078D0002093C6000895282F205DF0CF982F809127
:1078E000C00085FFFCCF9093C6000895EF92FF92F1
:1078F0000F931F93EE24FF2487018091C00087FD22
:1079000017C00894E11CF11C011D111D81E4E8164B
:1079100082E4F8068FE0080780E0180770F3E09132
:107920000401F091050109958091C00087FFE9CF1E
:107930008091C6001F910F91FF90EF9008950E94D3
:10794000763C982F8091C00085FFFCCF9093C600B5
:1079500091362CF490330CF09053892F089597555D
:10796000892F08951F930E949F3C182F0E949F3CCF
:107970001295107F810F1F9108951F93182F882350
:1079800021F00E94763C1150E1F71F9108951F935A
:10799000182F0E94763C803249F0809103018F5F5E
:1079A000809303018530C1F01F9108958091C0003C
:1079B00085FFFCCF84E18093C6008091C00085FFE5
:1079C000FCCF1093C6008091C00085FFFCCF80E102
:1079D0008093C6001F910895E0910401F091050184
:1079E00009951F9108950E94763C803241F0809164
:1079F00003018F5F80930301853081F008958091AA
:107A0000C00085FFFCCF84E18093C6008091C00058
:107A100085FFFCCF80E18093C6000895E0910401CA
:107A2000F09105010995089540E951E08823A1F0FE
:107A30002D9A28EE33E0FA013197F1F721503040CA
:107A4000D1F72D9828EE33E0FA013197F1F7215064
:107A50003040D1F7815061F708953F924F925F9285
:107A60006F927F928F929F92AF92BF92CF92DF924E
:107A7000EF92FF920F931F93CF93DF93000080E16B
:107A80008093C4001092C50088E18093C10086E015
:107A90008093C2005098589A259A81E00E94143D24
:107AA00024E1F22E9EE1E92E85E9D82E0FE0C02ECA
:107AB00010E1B12EAA24A394B1E49B2EA6E58A2E50
:107AC000F2E57F2EE0E26E2E79E4572E63E5462E36
:107AD00050E5352E0E94763C8033B1F18133B9F107
:107AE000803409F46FC0813409F476C0823409F41B
:107AF00085C0853409F488C0803531F1823521F1A3
:107B0000813511F1853509F485C0863509F48DC0BC
:107B1000843609F496C0843709F403C1853709F423
:107B200072C1863709F466C0809103018F5F80932C
:107B30000301853079F6E0910401F0910501099582
:107B40000E94763C803351F60E94F33CC3CF0E94E2
:107B5000763C803249F78091C00085FFFCCFF092DF
:107B6000C6008091C00085FFFCCF9092C600809136
:107B7000C00085FFFCCF8092C6008091C00085FFC9
:107B8000FCCF7092C6008091C00085FFFCCF609250
:107B9000C6008091C00085FFFCCF5092C600809146
:107BA000C00085FFFCCF4092C6008091C00085FFD9
:107BB000FCCF3092C6008091C00085FFFCCFB09210
:107BC000C60088CF0E94763C863808F4BDCF0E945C
:107BD000763C0E94F33C7ECF0E94763C803809F4CC
:107BE0009CC0813809F40BC1823809F43CC1883942
:107BF00009F48FC080E00E94C73C6CCF84E10E94F2
:107C0000BD3C0E94F33C66CF85E00E94BD3C0E94D3
:107C1000F33C60CF0E94763C809306010E94763C44
:107C2000809307010E94F33C55CF0E94763C80333D
:107C300009F41DC183E00E94BD3C80E00E94C73C66
:107C400049CF0E94763C809309020E94763C809343
:107C5000080280910C028E7F80930C020E94763C79
:107C6000853409F415C18091080290910902892B8D
:107C700089F000E010E00E94763CF801E85FFE4FDA
:107C800080830F5F1F4F80910802909109020817AF
:107C9000190788F30E94763C803209F045CF809125
:107CA0000C0280FF01C16091060170910701660F0F
:107CB000771F7093070160930601A0910802B091AD
:107CC00009021097C9F0E8E0F1E09B01AD014E0F09
:107CD0005F1FF999FECF32BD21BD819180BDFA9A17
:107CE000F99A2F5F3F4FE417F50799F76A0F7B1F4B
:107CF00070930701609306018091C00085FFFCCF5F
:107D0000F092C6008091C00085FFFCCFB092C60003
:107D1000E1CE83E00E94C73CDDCE82E00E94C73CFA
:107D2000D9CE0E94763C809309020E94763C8093D3
:107D300008028091060190910701880F991F909386
:107D40000701809306010E94763C853409F4A6C0A1
:107D500080910C028E7F80930C020E94763C8032D0
:107D600009F0B8CE8091C00085FFFCCFF092C6002C
:107D7000609108027091090261157105B9F140E046
:107D800050E080910C02A82FA170B82FB27011C0E2
:107D9000BB2309F45CC0E0910601F0910701319624
:107DA000F0930701E09306014F5F5F4F46175707B7
:107DB000E8F4AA2369F3F999FECF209106013091E6
:107DC000070132BD21BDF89A90B58091C00085FFB2
:107DD000FCCF9093C6002F5F3F4F30930701209355
:107DE00006014F5F5F4F4617570718F38091C00099
:107DF00085FDE5CE8091C00085FFF8CFE0CE81E023
:107E00000E94C73C67CE0E94763C803209F08CCE3F
:107E10008091C00085FFFCCFF092C6008091C00029
:107E200085FFFCCFE092C6008091C00085FFFCCFAB
:107E3000D092C6008091C00085FFFCCFC092C600E2
:107E40008091C00085FFFCCFB092C60043CEE09188
:107E50000601F091070194918091C00085FFFCCF4D
:107E60009093C6009CCF80E10E94C73C33CE0E9415
:107E7000763C0E94763C182F0E94763C112309F430
:107E800083C0113009F484C08FE00E94C73C22CE29
:107E900080910C02816080930C02E5CE80910C02EF
:107EA000816080930C0259CF809107018823880F4D
:107EB000880B8A2180930B02809106019091070123
:107EC000880F991F90930701809306018091080203
:107ED00080FF09C080910802909109020196909359
:107EE000090280930802F894F999FECF1127E091D6
:107EF0000601F0910701C8E0D1E08091080290915D
:107F00000902103091F40091570001700130D9F34B
:107F100003E000935700E89500915700017001308D
:107F2000D9F301E100935700E89509901990009169
:107F3000570001700130D9F301E000935700E89534
:107F40001395103498F011270091570001700130FB
:107F5000D9F305E000935700E895009157000170B0
:107F60000130D9F301E100935700E895329602976A
:107F700009F0C7CF103011F00296E5CF112480919F
:107F8000C00085FFB9CEBCCE8EE10E94C73CA2CD19
:0E7F900085E90E94C73C9ECDF894FFCF80008B
:00000001FF
